{
  "_format": "hh-sol-artifact-1",
  "contractName": "OonMoon",
  "sourceName": "contracts/OonMoon.sol",
  "abi": [
    {
      "inputs": [],
      "name": "BAD_MOOD",
      "outputs": [
        {
          "internalType": "uint8",
          "name": "",
          "type": "uint8"
        }
      ],
      "stateMutability": "view",
      "type": "function"
    },
    {
      "inputs": [],
      "name": "BREAKTHROUGH_PERIOD_FLAG",
      "outputs": [
        {
          "internalType": "uint8",
          "name": "",
          "type": "uint8"
        }
      ],
      "stateMutability": "view",
      "type": "function"
    },
    {
      "inputs": [],
      "name": "DEFAULT_MOOD",
      "outputs": [
        {
          "internalType": "uint8",
          "name": "",
          "type": "uint8"
        }
      ],
      "stateMutability": "view",
      "type": "function"
    },
    {
      "inputs": [],
      "name": "DEFAULT_PERIOD_FLAG",
      "outputs": [
        {
          "internalType": "uint8",
          "name": "",
          "type": "uint8"
        }
      ],
      "stateMutability": "view",
      "type": "function"
    },
    {
      "inputs": [],
      "name": "GOOD_MOOD",
      "outputs": [
        {
          "internalType": "uint8",
          "name": "",
          "type": "uint8"
        }
      ],
      "stateMutability": "view",
      "type": "function"
    },
    {
      "inputs": [],
      "name": "NEUTRAL_MOOD",
      "outputs": [
        {
          "internalType": "uint8",
          "name": "",
          "type": "uint8"
        }
      ],
      "stateMutability": "view",
      "type": "function"
    },
    {
      "inputs": [],
      "name": "NO_PERIOD_FLAG",
      "outputs": [
        {
          "internalType": "uint8",
          "name": "",
          "type": "uint8"
        }
      ],
      "stateMutability": "view",
      "type": "function"
    },
    {
      "inputs": [],
      "name": "PERIOD_FLAG",
      "outputs": [
        {
          "internalType": "uint8",
          "name": "",
          "type": "uint8"
        }
      ],
      "stateMutability": "view",
      "type": "function"
    },
    {
      "inputs": [
        {
          "internalType": "uint256",
          "name": "_year",
          "type": "uint256"
        },
        {
          "internalType": "uint256",
          "name": "_month",
          "type": "uint256"
        },
        {
          "internalType": "uint256",
          "name": "_day",
          "type": "uint256"
        }
      ],
      "name": "getMyDailyLog",
      "outputs": [
        {
          "components": [
            {
              "internalType": "uint8",
              "name": "periodFlag",
              "type": "uint8"
            },
            {
              "internalType": "uint8",
              "name": "moodFlag",
              "type": "uint8"
            }
          ],
          "internalType": "struct OonMoon.DailyLog",
          "name": "",
          "type": "tuple"
        }
      ],
      "stateMutability": "view",
      "type": "function"
    },
    {
      "inputs": [
        {
          "internalType": "uint256",
          "name": "_year",
          "type": "uint256"
        },
        {
          "internalType": "uint256",
          "name": "_month",
          "type": "uint256"
        }
      ],
      "name": "getMyMonthlyHistory",
      "outputs": [
        {
          "components": [
            {
              "internalType": "uint8",
              "name": "periodFlag",
              "type": "uint8"
            },
            {
              "internalType": "uint8",
              "name": "moodFlag",
              "type": "uint8"
            }
          ],
          "internalType": "struct OonMoon.DailyLog[31]",
          "name": "",
          "type": "tuple[31]"
        }
      ],
      "stateMutability": "view",
      "type": "function"
    },
    {
      "inputs": [
        {
          "internalType": "uint256",
          "name": "_year",
          "type": "uint256"
        },
        {
          "internalType": "uint256",
          "name": "_month",
          "type": "uint256"
        },
        {
          "internalType": "uint256",
          "name": "_day",
          "type": "uint256"
        },
        {
          "internalType": "uint8",
          "name": "_periodFlag",
          "type": "uint8"
        },
        {
          "internalType": "uint8",
          "name": "_moodFlag",
          "type": "uint8"
        }
      ],
      "name": "logDailyData",
      "outputs": [],
      "stateMutability": "nonpayable",
      "type": "function"
    }
  ],
  "bytecode": "0x608060405234801561001057600080fd5b50610ca9806100206000396000f3fe608060405234801561001057600080fd5b50600436106100a95760003560e01c8063939843bf11610071578063939843bf14610154578063aa949c3f14610172578063b69d0f1f14610190578063db0bc166146101c0578063e49c8458146101de578063f599e73d146101fc576100a9565b806317adf864146100ae57806330342d88146100ca5780633ea8da1e146100e8578063410a1454146101185780634e130b7614610136575b600080fd5b6100c860048036038101906100c39190610840565b61021a565b005b6100d261046a565b6040516100df9190610ae5565b60405180910390f35b61010260048036038101906100fd91906107f1565b61046f565b60405161010f9190610aca565b60405180910390f35b6101206105ea565b60405161012d9190610ae5565b60405180910390f35b61013e6105ef565b60405161014b9190610ae5565b60405180910390f35b61015c6105f4565b6040516101699190610ae5565b60405180910390f35b61017a6105f9565b6040516101879190610ae5565b60405180910390f35b6101aa60048036038101906101a591906107b5565b6105fe565b6040516101b79190610a2e565b60405180910390f35b6101c861072e565b6040516101d59190610ae5565b60405180910390f35b6101e6610733565b6040516101f39190610ae5565b60405180910390f35b610204610738565b6040516102119190610ae5565b60405180910390f35b8383600b821115610260576040517f08c379a000000000000000000000000000000000000000000000000000000000815260040161025790610aaa565b60405180910390fd5b601e8111156102a4576040517f08c379a000000000000000000000000000000000000000000000000000000000815260040161029b90610a6a565b60405180910390fd5b8383600360ff168260ff16111580156102c45750600160ff168260ff1610155b610303576040517f08c379a00000000000000000000000000000000000000000000000000000000081526004016102fa90610a4a565b60405180910390fd5b600360ff168160ff16111580156103215750600160ff168160ff1610155b610360576040517f08c379a000000000000000000000000000000000000000000000000000000000815260040161035790610a8a565b60405180910390fd5b600060405180604001604052808860ff1681526020018760ff168152509050806000803373ffffffffffffffffffffffffffffffffffffffff1673ffffffffffffffffffffffffffffffffffffffff16815260200190815260200160002060008c815260200190815260200160002060008b815260200190815260200160002089601f8110610418577f4e487b7100000000000000000000000000000000000000000000000000000000600052603260045260246000fd5b0160008201518160000160006101000a81548160ff021916908360ff16021790555060208201518160000160016101000a81548160ff021916908360ff16021790555090505050505050505050505050565b600181565b61047761073d565b8282600b8211156104bd576040517f08c379a00000000000000000000000000000000000000000000000000000000081526004016104b490610aaa565b60405180910390fd5b601e811115610501576040517f08c379a00000000000000000000000000000000000000000000000000000000081526004016104f890610a6a565b60405180910390fd5b6000803373ffffffffffffffffffffffffffffffffffffffff1673ffffffffffffffffffffffffffffffffffffffff1681526020019081526020016000206000878152602001908152602001600020600086815260200190815260200160002084601f8110610599577f4e487b7100000000000000000000000000000000000000000000000000000000600052603260045260246000fd5b016040518060400160405290816000820160009054906101000a900460ff1660ff1660ff1681526020016000820160019054906101000a900460ff1660ff1660ff1681525050925050509392505050565b600381565b600081565b600081565b600381565b61060661075d565b81600b81111561064b576040517f08c379a000000000000000000000000000000000000000000000000000000000815260040161064290610aaa565b60405180910390fd5b6000803373ffffffffffffffffffffffffffffffffffffffff1673ffffffffffffffffffffffffffffffffffffffff16815260200190815260200160002060008581526020019081526020016000206000848152602001908152602001600020601f80602002604051908101604052809291906000905b82821015610721578382016040518060400160405290816000820160009054906101000a900460ff1660ff1660ff1681526020016000820160019054906101000a900460ff1660ff1660ff1681525050815260200190600101906106c2565b5050505091505092915050565b600181565b600281565b600281565b6040518060400160405280600060ff168152602001600060ff1681525090565b604051806103e00160405280601f905b61077561073d565b81526020019060019003908161076d5790505090565b60008135905061079a81610c45565b92915050565b6000813590506107af81610c5c565b92915050565b600080604083850312156107c857600080fd5b60006107d68582860161078b565b92505060206107e78582860161078b565b9150509250929050565b60008060006060848603121561080657600080fd5b60006108148682870161078b565b93505060206108258682870161078b565b92505060406108368682870161078b565b9150509250925092565b600080600080600060a0868803121561085857600080fd5b60006108668882890161078b565b95505060206108778882890161078b565b94505060406108888882890161078b565b9350506060610899888289016107a0565b92505060806108aa888289016107a0565b9150509295509295909350565b60006108c383836109b2565b60408301905092915050565b6108d881610b0a565b6108e28184610b22565b92506108ed82610b00565b8060005b8381101561091e57815161090587826108b7565b965061091083610b15565b9250506001810190506108f1565b505050505050565b6000610933601983610b2d565b915061093e82610b55565b602082019050919050565b6000610956603283610b2d565b915061096182610b7e565b604082019050919050565b6000610979601783610b2d565b915061098482610bcd565b602082019050919050565b600061099c603483610b2d565b91506109a782610bf6565b604082019050919050565b6040820160008201516109c86000850182610a10565b5060208201516109db6020850182610a10565b50505050565b6040820160008201516109f76000850182610a10565b506020820151610a0a6020850182610a10565b50505050565b610a1981610b48565b82525050565b610a2881610b48565b82525050565b60006107c082019050610a4460008301846108cf565b92915050565b60006020820190508181036000830152610a6381610926565b9050919050565b60006020820190508181036000830152610a8381610949565b9050919050565b60006020820190508181036000830152610aa38161096c565b9050919050565b60006020820190508181036000830152610ac38161098f565b9050919050565b6000604082019050610adf60008301846109e1565b92915050565b6000602082019050610afa6000830184610a1f565b92915050565b6000819050919050565b6000601f9050919050565b6000602082019050919050565b600081905092915050565b600082825260208201905092915050565b6000819050919050565b600060ff82169050919050565b7f496e76616c696420504552494f4420666c61672076616c756500000000000000600082015250565b7f496e636f727265637420646179206f7074696f6e2c206f6e6c792076616c756560008201527f73206f6620302d33302061636365707465640000000000000000000000000000602082015250565b7f496e76616c6964204d4f4f4420666c61672076616c7565000000000000000000600082015250565b7f496e636f7272656374206d6f6e7468206f7074696f6e2c206f6e6c792076616c60008201527f756573206f6620302d3131206163636570746564000000000000000000000000602082015250565b610c4e81610b3e565b8114610c5957600080fd5b50565b610c6581610b48565b8114610c7057600080fd5b5056fea264697066735822122002e8b6be16872e9cfbe53e4145e2beffe4e52b03eae2c5101794ee0eb2ced8db64736f6c63430008040033",
  "linkReferences": {},
  "deployedLinkReferences": {}
}